{
  "_format": "hh-sol-artifact-1",
  "contractName": "WaifuClanCollection",
  "sourceName": "contracts/WaifuClanCollection.sol",
  "abi": [
    {
      "inputs": [],
      "stateMutability": "nonpayable",
      "type": "constructor"
    },
    {
      "inputs": [],
      "name": "ApprovalCallerNotOwnerNorApproved",
      "type": "error"
    },
    {
      "inputs": [],
      "name": "ApprovalQueryForNonexistentToken",
      "type": "error"
    },
    {
      "inputs": [],
      "name": "ApproveToCaller",
      "type": "error"
    },
    {
      "inputs": [],
      "name": "BalanceQueryForZeroAddress",
      "type": "error"
    },
    {
      "inputs": [],
      "name": "MintERC2309QuantityExceedsLimit",
      "type": "error"
    },
    {
      "inputs": [],
      "name": "MintToZeroAddress",
      "type": "error"
    },
    {
      "inputs": [],
      "name": "MintZeroQuantity",
      "type": "error"
    },
    {
      "inputs": [],
      "name": "OwnerQueryForNonexistentToken",
      "type": "error"
    },
    {
      "inputs": [],
      "name": "OwnershipNotInitializedForExtraData",
      "type": "error"
    },
    {
      "inputs": [],
      "name": "TransferCallerNotOwnerNorApproved",
      "type": "error"
    },
    {
      "inputs": [],
      "name": "TransferFromIncorrectOwner",
      "type": "error"
    },
    {
      "inputs": [],
      "name": "TransferToNonERC721ReceiverImplementer",
      "type": "error"
    },
    {
      "inputs": [],
      "name": "TransferToZeroAddress",
      "type": "error"
    },
    {
      "inputs": [],
      "name": "URIQueryForNonexistentToken",
      "type": "error"
    },
    {
      "anonymous": false,
      "inputs": [
        {
          "indexed": true,
          "internalType": "address",
          "name": "owner",
          "type": "address"
        },
        {
          "indexed": true,
          "internalType": "address",
          "name": "approved",
          "type": "address"
        },
        {
          "indexed": true,
          "internalType": "uint256",
          "name": "tokenId",
          "type": "uint256"
        }
      ],
      "name": "Approval",
      "type": "event"
    },
    {
      "anonymous": false,
      "inputs": [
        {
          "indexed": true,
          "internalType": "address",
          "name": "owner",
          "type": "address"
        },
        {
          "indexed": true,
          "internalType": "address",
          "name": "operator",
          "type": "address"
        },
        {
          "indexed": false,
          "internalType": "bool",
          "name": "approved",
          "type": "bool"
        }
      ],
      "name": "ApprovalForAll",
      "type": "event"
    },
    {
      "anonymous": false,
      "inputs": [
        {
          "indexed": true,
          "internalType": "uint256",
          "name": "fromTokenId",
          "type": "uint256"
        },
        {
          "indexed": false,
          "internalType": "uint256",
          "name": "toTokenId",
          "type": "uint256"
        },
        {
          "indexed": true,
          "internalType": "address",
          "name": "from",
          "type": "address"
        },
        {
          "indexed": true,
          "internalType": "address",
          "name": "to",
          "type": "address"
        }
      ],
      "name": "ConsecutiveTransfer",
      "type": "event"
    },
    {
      "anonymous": false,
      "inputs": [
        {
          "indexed": true,
          "internalType": "address",
          "name": "previousOwner",
          "type": "address"
        },
        {
          "indexed": true,
          "internalType": "address",
          "name": "newOwner",
          "type": "address"
        }
      ],
      "name": "OwnershipTransferred",
      "type": "event"
    },
    {
      "anonymous": false,
      "inputs": [
        {
          "indexed": false,
          "internalType": "address",
          "name": "account",
          "type": "address"
        }
      ],
      "name": "Paused",
      "type": "event"
    },
    {
      "anonymous": false,
      "inputs": [
        {
          "indexed": true,
          "internalType": "address",
          "name": "from",
          "type": "address"
        },
        {
          "indexed": true,
          "internalType": "address",
          "name": "to",
          "type": "address"
        },
        {
          "indexed": true,
          "internalType": "uint256",
          "name": "tokenId",
          "type": "uint256"
        }
      ],
      "name": "Transfer",
      "type": "event"
    },
    {
      "anonymous": false,
      "inputs": [
        {
          "indexed": false,
          "internalType": "address",
          "name": "account",
          "type": "address"
        }
      ],
      "name": "Unpaused",
      "type": "event"
    },
    {
      "inputs": [],
      "name": "FREE_MINT_LIMIT",
      "outputs": [
        {
          "internalType": "uint256",
          "name": "",
          "type": "uint256"
        }
      ],
      "stateMutability": "view",
      "type": "function"
    },
    {
      "inputs": [
        {
          "internalType": "address",
          "name": "to",
          "type": "address"
        },
        {
          "internalType": "uint256",
          "name": "tokenId",
          "type": "uint256"
        }
      ],
      "name": "approve",
      "outputs": [],
      "stateMutability": "nonpayable",
      "type": "function"
    },
    {
      "inputs": [
        {
          "internalType": "address",
          "name": "owner",
          "type": "address"
        }
      ],
      "name": "balanceOf",
      "outputs": [
        {
          "internalType": "uint256",
          "name": "",
          "type": "uint256"
        }
      ],
      "stateMutability": "view",
      "type": "function"
    },
    {
      "inputs": [],
      "name": "baseUri",
      "outputs": [
        {
          "internalType": "string",
          "name": "",
          "type": "string"
        }
      ],
      "stateMutability": "view",
      "type": "function"
    },
    {
      "inputs": [],
      "name": "canUserMint",
      "outputs": [
        {
          "internalType": "bool",
          "name": "",
          "type": "bool"
        }
      ],
      "stateMutability": "view",
      "type": "function"
    },
    {
      "inputs": [],
      "name": "changeMintingStatus",
      "outputs": [],
      "stateMutability": "nonpayable",
      "type": "function"
    },
    {
      "inputs": [],
      "name": "evenBaseUri",
      "outputs": [
        {
          "internalType": "string",
          "name": "",
          "type": "string"
        }
      ],
      "stateMutability": "view",
      "type": "function"
    },
    {
      "inputs": [
        {
          "internalType": "address",
          "name": "",
          "type": "address"
        }
      ],
      "name": "freeMintedCount",
      "outputs": [
        {
          "internalType": "uint256",
          "name": "",
          "type": "uint256"
        }
      ],
      "stateMutability": "view",
      "type": "function"
    },
    {
      "inputs": [
        {
          "internalType": "uint256",
          "name": "tokenId",
          "type": "uint256"
        }
      ],
      "name": "getApproved",
      "outputs": [
        {
          "internalType": "address",
          "name": "",
          "type": "address"
        }
      ],
      "stateMutability": "view",
      "type": "function"
    },
    {
      "inputs": [],
      "name": "getNextTokenId",
      "outputs": [
        {
          "internalType": "uint256",
          "name": "",
          "type": "uint256"
        }
      ],
      "stateMutability": "view",
      "type": "function"
    },
    {
      "inputs": [],
      "name": "getPrice",
      "outputs": [
        {
          "internalType": "uint256",
          "name": "",
          "type": "uint256"
        }
      ],
      "stateMutability": "view",
      "type": "function"
    },
    {
      "inputs": [
        {
          "internalType": "address",
          "name": "owner",
          "type": "address"
        },
        {
          "internalType": "address",
          "name": "operator",
          "type": "address"
        }
      ],
      "name": "isApprovedForAll",
      "outputs": [
        {
          "internalType": "bool",
          "name": "",
          "type": "bool"
        }
      ],
      "stateMutability": "view",
      "type": "function"
    },
    {
      "inputs": [],
      "name": "isWhitelistAddress",
      "outputs": [
        {
          "internalType": "bool",
          "name": "",
          "type": "bool"
        }
      ],
      "stateMutability": "view",
      "type": "function"
    },
    {
      "inputs": [],
      "name": "maxSupply",
      "outputs": [
        {
          "internalType": "uint256",
          "name": "",
          "type": "uint256"
        }
      ],
      "stateMutability": "view",
      "type": "function"
    },
    {
      "inputs": [
        {
          "internalType": "uint256",
          "name": "quantity",
          "type": "uint256"
        }
      ],
      "name": "mint",
      "outputs": [],
      "stateMutability": "payable",
      "type": "function"
    },
    {
      "inputs": [
        {
          "internalType": "address",
          "name": "user",
          "type": "address"
        },
        {
          "internalType": "uint256",
          "name": "quantity",
          "type": "uint256"
        }
      ],
      "name": "mintFor",
      "outputs": [],
      "stateMutability": "nonpayable",
      "type": "function"
    },
    {
      "inputs": [
        {
          "internalType": "uint256",
          "name": "quantity",
          "type": "uint256"
        }
      ],
      "name": "mintForAdmin",
      "outputs": [],
      "stateMutability": "nonpayable",
      "type": "function"
    },
    {
      "inputs": [],
      "name": "name",
      "outputs": [
        {
          "internalType": "string",
          "name": "",
          "type": "string"
        }
      ],
      "stateMutability": "view",
      "type": "function"
    },
    {
      "inputs": [],
      "name": "oddBaseUri",
      "outputs": [
        {
          "internalType": "string",
          "name": "",
          "type": "string"
        }
      ],
      "stateMutability": "view",
      "type": "function"
    },
    {
      "inputs": [],
      "name": "owner",
      "outputs": [
        {
          "internalType": "address",
          "name": "",
          "type": "address"
        }
      ],
      "stateMutability": "view",
      "type": "function"
    },
    {
      "inputs": [
        {
          "internalType": "uint256",
          "name": "tokenId",
          "type": "uint256"
        }
      ],
      "name": "ownerOf",
      "outputs": [
        {
          "internalType": "address",
          "name": "",
          "type": "address"
        }
      ],
      "stateMutability": "view",
      "type": "function"
    },
    {
      "inputs": [],
      "name": "pause",
      "outputs": [],
      "stateMutability": "nonpayable",
      "type": "function"
    },
    {
      "inputs": [],
      "name": "paused",
      "outputs": [
        {
          "internalType": "bool",
          "name": "",
          "type": "bool"
        }
      ],
      "stateMutability": "view",
      "type": "function"
    },
    {
      "inputs": [],
      "name": "renounceOwnership",
      "outputs": [],
      "stateMutability": "nonpayable",
      "type": "function"
    },
    {
      "inputs": [],
      "name": "reveal",
      "outputs": [],
      "stateMutability": "nonpayable",
      "type": "function"
    },
    {
      "inputs": [],
      "name": "revealState",
      "outputs": [
        {
          "internalType": "bool",
          "name": "",
          "type": "bool"
        }
      ],
      "stateMutability": "view",
      "type": "function"
    },
    {
      "inputs": [
        {
          "internalType": "uint256",
          "name": "_tokenId",
          "type": "uint256"
        },
        {
          "internalType": "uint256",
          "name": "_salePrice",
          "type": "uint256"
        }
      ],
      "name": "royaltyInfo",
      "outputs": [
        {
          "internalType": "address",
          "name": "",
          "type": "address"
        },
        {
          "internalType": "uint256",
          "name": "",
          "type": "uint256"
        }
      ],
      "stateMutability": "view",
      "type": "function"
    },
    {
      "inputs": [
        {
          "internalType": "address",
          "name": "from",
          "type": "address"
        },
        {
          "internalType": "address",
          "name": "to",
          "type": "address"
        },
        {
          "internalType": "uint256",
          "name": "tokenId",
          "type": "uint256"
        }
      ],
      "name": "safeTransferFrom",
      "outputs": [],
      "stateMutability": "nonpayable",
      "type": "function"
    },
    {
      "inputs": [
        {
          "internalType": "address",
          "name": "from",
          "type": "address"
        },
        {
          "internalType": "address",
          "name": "to",
          "type": "address"
        },
        {
          "internalType": "uint256",
          "name": "tokenId",
          "type": "uint256"
        },
        {
          "internalType": "bytes",
          "name": "_data",
          "type": "bytes"
        }
      ],
      "name": "safeTransferFrom",
      "outputs": [],
      "stateMutability": "nonpayable",
      "type": "function"
    },
    {
      "inputs": [
        {
          "internalType": "address",
          "name": "operator",
          "type": "address"
        },
        {
          "internalType": "bool",
          "name": "approved",
          "type": "bool"
        }
      ],
      "name": "setApprovalForAll",
      "outputs": [],
      "stateMutability": "nonpayable",
      "type": "function"
    },
    {
      "inputs": [
        {
          "internalType": "string",
          "name": "_baseUri",
          "type": "string"
        }
      ],
      "name": "setBaseUri",
      "outputs": [],
      "stateMutability": "nonpayable",
      "type": "function"
    },
    {
      "inputs": [
        {
          "internalType": "string",
          "name": "_baseUri",
          "type": "string"
        }
      ],
      "name": "setRevealUri",
      "outputs": [],
      "stateMutability": "nonpayable",
      "type": "function"
    },
    {
      "inputs": [
        {
          "internalType": "uint256",
          "name": "_settingPrice",
          "type": "uint256"
        }
      ],
      "name": "setPrice",
      "outputs": [],
      "stateMutability": "nonpayable",
      "type": "function"
    },
    {
      "inputs": [
        {
          "internalType": "address",
          "name": "_royaltyWallet",
          "type": "address"
        }
      ],
      "name": "setRoyaltiesWalletAddress",
      "outputs": [],
      "stateMutability": "nonpayable",
      "type": "function"
    },
    {
      "inputs": [
        {
          "internalType": "uint256",
          "name": "quantity",
          "type": "uint256"
        }
      ],
      "name": "setTotalSupply",
      "outputs": [],
      "stateMutability": "nonpayable",
      "type": "function"
    },
    {
      "inputs": [
        {
          "internalType": "address[]",
          "name": "wlList",
          "type": "address[]"
        }
      ],
      "name": "setWlList",
      "outputs": [],
      "stateMutability": "nonpayable",
      "type": "function"
    },
    {
      "inputs": [
        {
          "internalType": "bytes4",
          "name": "interfaceId",
          "type": "bytes4"
        }
      ],
      "name": "supportsInterface",
      "outputs": [
        {
          "internalType": "bool",
          "name": "",
          "type": "bool"
        }
      ],
      "stateMutability": "view",
      "type": "function"
    },
    {
      "inputs": [],
      "name": "symbol",
      "outputs": [
        {
          "internalType": "string",
          "name": "",
          "type": "string"
        }
      ],
      "stateMutability": "view",
      "type": "function"
    },
    {
      "inputs": [
        {
          "internalType": "uint256",
          "name": "tokenId",
          "type": "uint256"
        }
      ],
      "name": "tokenURI",
      "outputs": [
        {
          "internalType": "string",
          "name": "",
          "type": "string"
        }
      ],
      "stateMutability": "view",
      "type": "function"
    },
    {
      "inputs": [],
      "name": "totalSupply",
      "outputs": [
        {
          "internalType": "uint256",
          "name": "",
          "type": "uint256"
        }
      ],
      "stateMutability": "view",
      "type": "function"
    },
    {
      "inputs": [
        {
          "internalType": "address",
          "name": "from",
          "type": "address"
        },
        {
          "internalType": "address",
          "name": "to",
          "type": "address"
        },
        {
          "internalType": "uint256",
          "name": "tokenId",
          "type": "uint256"
        }
      ],
      "name": "transferFrom",
      "outputs": [],
      "stateMutability": "nonpayable",
      "type": "function"
    },
    {
      "inputs": [
        {
          "internalType": "address",
          "name": "newOwner",
          "type": "address"
        }
      ],
      "name": "transferOwnership",
      "outputs": [],
      "stateMutability": "nonpayable",
      "type": "function"
    },
    {
      "inputs": [],
      "name": "unpause",
      "outputs": [],
      "stateMutability": "nonpayable",
      "type": "function"
    },
    {
      "inputs": [],
      "name": "withdrawFunds",
      "outputs": [],
      "stateMutability": "nonpayable",
      "type": "function"
    }
  ],
  "bytecode": "0x60806040526103e8600b55736f51f5715f72e9c2200ec6a6fe9942023fbe7bc3601260006101000a81548173ffffffffffffffffffffffffffffffffffffffff021916908373ffffffffffffffffffffffffffffffffffffffff1602179055503480156200006c57600080fd5b506040518060400160405280601181526020017f5761696675436c616e2047656e657369730000000000000000000000000000008152506040518060400160405280600381526020017f57434700000000000000000000000000000000000000000000000000000000008152508160029080519060200190620000f192919062000634565b5080600390805190602001906200010a92919062000634565b506200011b620002e460201b60201c565b60008190555050506000600a60006101000a81548160ff0219169083151502179055506200015e62000152620002e960201b60201c565b620002f160201b60201c565b62000194601260009054906101000a900473ffffffffffffffffffffffffffffffffffffffff166103e8620003b760201b60201c565b60405180608001604052806044815260200162004f1f60449139600e9080519060200190620001c592919062000634565b5060405180608001604052806044815260200162004fa760449139600f9080519060200190620001f792919062000634565b5060405180608001604052806044815260200162004f6360449139601090805190602001906200022992919062000634565b506001601160006380ac58cd60e01b7bffffffffffffffffffffffffffffffffffffffffffffffffffffffff1916815260200190815260200160002060006101000a81548160ff021916908315150217905550600160116000632a55205a60e01b7bffffffffffffffffffffffffffffffffffffffffffffffffffffffff1916815260200190815260200160002060006101000a81548160ff021916908315150217905550620002de6200055b60201b60201c565b62000938565b600090565b600033905090565b6000600a60019054906101000a900473ffffffffffffffffffffffffffffffffffffffff16905081600a60016101000a81548173ffffffffffffffffffffffffffffffffffffffff021916908373ffffffffffffffffffffffffffffffffffffffff1602179055508173ffffffffffffffffffffffffffffffffffffffff168173ffffffffffffffffffffffffffffffffffffffff167f8be0079c531659141344cd1fd0a4f28419497f9722a3daafe3b4186f6b6457e060405160405180910390a35050565b620003c76200061360201b60201c565b6bffffffffffffffffffffffff16816bffffffffffffffffffffffff16111562000428576040517f08c379a00000000000000000000000000000000000000000000000000000000081526004016200041f90620007a9565b60405180910390fd5b600073ffffffffffffffffffffffffffffffffffffffff168273ffffffffffffffffffffffffffffffffffffffff1614156200049b576040517f08c379a00000000000000000000000000000000000000000000000000000000081526004016200049290620007cb565b60405180910390fd5b60405180604001604052808373ffffffffffffffffffffffffffffffffffffffff168152602001826bffffffffffffffffffffffff16815250600860008201518160000160006101000a81548173ffffffffffffffffffffffffffffffffffffffff021916908373ffffffffffffffffffffffffffffffffffffffff16021790555060208201518160000160146101000a8154816bffffffffffffffffffffffff02191690836bffffffffffffffffffffffff1602179055509050505050565b6200056b6200061d60201b60201c565b15620005ae576040517f08c379a0000000000000000000000000000000000000000000000000000000008152600401620005a59062000787565b60405180910390fd5b6001600a60006101000a81548160ff0219169083151502179055507f62e78cea01bee320cd4e420270b5ea74000d11b0c9f74754ebdbfc544b05a258620005fa620002e960201b60201c565b6040516200060991906200076a565b60405180910390a1565b6000612710905090565b6000600a60009054906101000a900460ff16905090565b828054620006429062000832565b90600052602060002090601f016020900481019282620006665760008555620006b2565b82601f106200068157805160ff1916838001178555620006b2565b82800160010185558215620006b2579182015b82811115620006b157825182559160200191906001019062000694565b5b509050620006c19190620006c5565b5090565b5b80821115620006e0576000816000905550600101620006c6565b5090565b620006ef81620007fe565b82525050565b600062000704601083620007ed565b9150620007118262000897565b602082019050919050565b60006200072b602a83620007ed565b91506200073882620008c0565b604082019050919050565b600062000752601983620007ed565b91506200075f826200090f565b602082019050919050565b6000602082019050620007816000830184620006e4565b92915050565b60006020820190508181036000830152620007a281620006f5565b9050919050565b60006020820190508181036000830152620007c4816200071c565b9050919050565b60006020820190508181036000830152620007e68162000743565b9050919050565b600082825260208201905092915050565b60006200080b8262000812565b9050919050565b600073ffffffffffffffffffffffffffffffffffffffff82169050919050565b600060028204905060018216806200084b57607f821691505b6020821081141562000862576200086162000868565b5b50919050565b7f4e487b7100000000000000000000000000000000000000000000000000000000600052602260045260246000fd5b7f5061757361626c653a2070617573656400000000000000000000000000000000600082015250565b7f455243323938313a20726f79616c7479206665652077696c6c2065786365656460008201527f2073616c65507269636500000000000000000000000000000000000000000000602082015250565b7f455243323938313a20696e76616c696420726563656976657200000000000000600082015250565b6145d780620009486000396000f3fe6080604052600436106102725760003560e01c806391b7f5ed1161014f578063c62728d9116100c1578063d6d07c9b1161007a578063d6d07c9b146108fa578063d958b8ff14610923578063da1919b31461093a578063e985e9c514610963578063ecfdf918146109a0578063f2fde38b146109c957610272565b8063c62728d9146107ea578063c87b56dd14610813578063caa0f92a14610850578063cee052ad1461087b578063d0dc8bfd146108a4578063d5abeb01146108cf57610272565b8063a0712d6811610113578063a0712d6814610711578063a0bcfc7f1461072d578063a22cb46514610756578063a475b5dd1461077f578063a7048ae114610796578063b88d4fde146107c157610272565b806391b7f5ed1461062a57806395d89b4114610653578063981332351461067e57806398d5fdca146106bb5780639abc8320146106e657610272565b8063360319c3116101e85780636352211e116101ac5780636352211e1461052c57806370a0823114610569578063715018a6146105a65780638456cb59146105bd5780638da5cb5b146105d45780639151f56b146105ff57610272565b8063360319c31461046d5780633f4ba83a1461049657806342842e0e146104ad57806350f77e47146104d65780635c975abb1461050157610272565b80631772f1e11161023a5780631772f1e11461037057806318160ddd1461039957806320a2a0a9146103c457806323b872dd146103ef57806324600fc3146104185780632a55205a1461042f57610272565b806301ffc9a71461027757806306fdde03146102b4578063081812fc146102df578063095ea7b31461031c578063131f5d0514610345575b600080fd5b34801561028357600080fd5b5061029e600480360381019061029991906137fa565b6109f2565b6040516102ab9190613c2e565b60405180910390f35b3480156102c057600080fd5b506102c9610ad2565b6040516102d69190613c49565b60405180910390f35b3480156102eb57600080fd5b506103066004803603810190610301919061388d565b610b64565b6040516103139190613b9e565b60405180910390f35b34801561032857600080fd5b50610343600480360381019061033e919061377d565b610be0565b005b34801561035157600080fd5b5061035a610d21565b6040516103679190613c2e565b60405180910390f35b34801561037c57600080fd5b5061039760048036038101906103929190613612565b610d34565b005b3480156103a557600080fd5b506103ae610dbf565b6040516103bb9190613e4b565b60405180910390f35b3480156103d057600080fd5b506103d9610dd6565b6040516103e69190613c49565b60405180910390f35b3480156103fb57600080fd5b5061041660048036038101906104119190613677565b610e64565b005b34801561042457600080fd5b5061042d611189565b005b34801561043b57600080fd5b50610456600480360381019061045191906138b6565b611254565b604051610464929190613c05565b60405180910390f35b34801561047957600080fd5b50610494600480360381019061048f919061388d565b61143f565b005b3480156104a257600080fd5b506104ab6114c5565b005b3480156104b957600080fd5b506104d460048036038101906104cf9190613677565b61154b565b005b3480156104e257600080fd5b506104eb61156b565b6040516104f89190613c2e565b60405180910390f35b34801561050d57600080fd5b506105166115bf565b6040516105239190613c2e565b60405180910390f35b34801561053857600080fd5b50610553600480360381019061054e919061388d565b6115d6565b6040516105609190613b9e565b60405180910390f35b34801561057557600080fd5b50610590600480360381019061058b9190613612565b6115e8565b60405161059d9190613e4b565b60405180910390f35b3480156105b257600080fd5b506105bb6116a1565b005b3480156105c957600080fd5b506105d2611729565b005b3480156105e057600080fd5b506105e96117af565b6040516105f69190613b9e565b60405180910390f35b34801561060b57600080fd5b506106146117d9565b6040516106219190613c49565b60405180910390f35b34801561063657600080fd5b50610651600480360381019061064c919061388d565b611867565b005b34801561065f57600080fd5b506106686118ed565b6040516106759190613c49565b60405180910390f35b34801561068a57600080fd5b506106a560048036038101906106a09190613612565b61197f565b6040516106b29190613e4b565b60405180910390f35b3480156106c757600080fd5b506106d0611997565b6040516106dd9190613e4b565b60405180910390f35b3480156106f257600080fd5b506106fb6119a1565b6040516107089190613c49565b60405180910390f35b61072b6004803603810190610726919061388d565b611a2f565b005b34801561073957600080fd5b50610754600480360381019061074f919061384c565b611c6e565b005b34801561076257600080fd5b5061077d60048036038101906107789190613741565b611d04565b005b34801561078b57600080fd5b50610794611e7c565b005b3480156107a257600080fd5b506107ab611f65565b6040516107b89190613e4b565b60405180910390f35b3480156107cd57600080fd5b506107e860048036038101906107e391906136c6565b611f6a565b005b3480156107f657600080fd5b50610811600480360381019061080c919061384c565b611fdd565b005b34801561081f57600080fd5b5061083a6004803603810190610835919061388d565b612073565b6040516108479190613c49565b60405180910390f35b34801561085c57600080fd5b50610865612215565b6040516108729190613e4b565b60405180910390f35b34801561088757600080fd5b506108a2600480360381019061089d91906137b9565b612224565b005b3480156108b057600080fd5b506108b961235b565b6040516108c69190613c2e565b60405180910390f35b3480156108db57600080fd5b506108e461236e565b6040516108f19190613e4b565b60405180910390f35b34801561090657600080fd5b50610921600480360381019061091c919061388d565b612374565b005b34801561092f57600080fd5b506109386124e9565b005b34801561094657600080fd5b50610961600480360381019061095c919061377d565b6125b2565b005b34801561096f57600080fd5b5061098a6004803603810190610985919061363b565b612730565b6040516109979190613c2e565b60405180910390f35b3480156109ac57600080fd5b506109c760048036038101906109c2919061384c565b6127c4565b005b3480156109d557600080fd5b506109f060048036038101906109eb9190613612565b61285a565b005b60006109fd82612952565b80610a6557507f2baae9fd000000000000000000000000000000000000000000000000000000007bffffffffffffffffffffffffffffffffffffffffffffffffffffffff1916827bffffffffffffffffffffffffffffffffffffffffffffffffffffffff1916145b80610acb575060116000837bffffffffffffffffffffffffffffffffffffffffffffffffffffffff19167bffffffffffffffffffffffffffffffffffffffffffffffffffffffff1916815260200190815260200160002060009054906101000a900460ff165b9050919050565b606060028054610ae1906140e8565b80601f0160208091040260200160405190810160405280929190818152602001828054610b0d906140e8565b8015610b5a5780601f10610b2f57610100808354040283529160200191610b5a565b820191906000526020600020905b815481529060010190602001808311610b3d57829003601f168201915b5050505050905090565b6000610b6f826129cc565b610ba5576040517fcf4700e400000000000000000000000000000000000000000000000000000000815260040160405180910390fd5b6006600083815260200190815260200160002060009054906101000a900473ffffffffffffffffffffffffffffffffffffffff169050919050565b6000610beb826115d6565b90508073ffffffffffffffffffffffffffffffffffffffff16610c0c612a2b565b73ffffffffffffffffffffffffffffffffffffffff1614610c6f57610c3881610c33612a2b565b612730565b610c6e576040517fcfb3b94200000000000000000000000000000000000000000000000000000000815260040160405180910390fd5b5b826006600084815260200190815260200160002060006101000a81548173ffffffffffffffffffffffffffffffffffffffff021916908373ffffffffffffffffffffffffffffffffffffffff160217905550818373ffffffffffffffffffffffffffffffffffffffff168273ffffffffffffffffffffffffffffffffffffffff167f8c5be1e5ebec7d5bd14f71427d1e84f3dd0314c0f7b2291e5b200ac8c7c3b92560405160405180910390a4505050565b601460009054906101000a900460ff1681565b610d3c612a33565b73ffffffffffffffffffffffffffffffffffffffff16610d5a6117af565b73ffffffffffffffffffffffffffffffffffffffff1614610db0576040517f08c379a0000000000000000000000000000000000000000000000000000000008152600401610da790613dab565b60405180910390fd5b610dbc816103e8612a3b565b50565b6000610dc9612bd1565b6001546000540303905090565b60108054610de3906140e8565b80601f0160208091040260200160405190810160405280929190818152602001828054610e0f906140e8565b8015610e5c5780601f10610e3157610100808354040283529160200191610e5c565b820191906000526020600020905b815481529060010190602001808311610e3f57829003601f168201915b505050505081565b6000610e6f82612bd6565b90508373ffffffffffffffffffffffffffffffffffffffff168173ffffffffffffffffffffffffffffffffffffffff1614610ed6576040517fa114810000000000000000000000000000000000000000000000000000000000815260040160405180910390fd5b600080610ee284612ca4565b91509150610ef88187610ef3612a2b565b612cc6565b610f4457610f0d86610f08612a2b565b612730565b610f43576040517f59c896be00000000000000000000000000000000000000000000000000000000815260040160405180910390fd5b5b600073ffffffffffffffffffffffffffffffffffffffff168573ffffffffffffffffffffffffffffffffffffffff161415610fab576040517fea553b3400000000000000000000000000000000000000000000000000000000815260040160405180910390fd5b610fb88686866001612d0a565b8015610fc357600082555b600560008773ffffffffffffffffffffffffffffffffffffffff1673ffffffffffffffffffffffffffffffffffffffff168152602001908152602001600020600081546001900391905081905550600560008673ffffffffffffffffffffffffffffffffffffffff1673ffffffffffffffffffffffffffffffffffffffff16815260200190815260200160002060008154600101919050819055506110918561106d888887612d10565b7c020000000000000000000000000000000000000000000000000000000017612d38565b600460008681526020019081526020016000208190555060007c020000000000000000000000000000000000000000000000000000000084161415611119576000600185019050600060046000838152602001908152602001600020541415611117576000548114611116578360046000838152602001908152602001600020819055505b5b505b838573ffffffffffffffffffffffffffffffffffffffff168773ffffffffffffffffffffffffffffffffffffffff167fddf252ad1be2c89b69c2b068fc378daa952ba7f163c4a11628f55a4df523b3ef60405160405180910390a46111818686866001612d63565b505050505050565b611191612a33565b73ffffffffffffffffffffffffffffffffffffffff166111af6117af565b73ffffffffffffffffffffffffffffffffffffffff1614611205576040517f08c379a00000000000000000000000000000000000000000000000000000000081526004016111fc90613dab565b60405180910390fd5b60004790503373ffffffffffffffffffffffffffffffffffffffff166108fc829081150290604051600060405180830381858888f19350505050158015611250573d6000803e3d6000fd5b5050565b6000806000600960008681526020019081526020016000206040518060400160405290816000820160009054906101000a900473ffffffffffffffffffffffffffffffffffffffff1673ffffffffffffffffffffffffffffffffffffffff1673ffffffffffffffffffffffffffffffffffffffff1681526020016000820160149054906101000a90046bffffffffffffffffffffffff166bffffffffffffffffffffffff166bffffffffffffffffffffffff16815250509050600073ffffffffffffffffffffffffffffffffffffffff16816000015173ffffffffffffffffffffffffffffffffffffffff1614156113ea5760086040518060400160405290816000820160009054906101000a900473ffffffffffffffffffffffffffffffffffffffff1673ffffffffffffffffffffffffffffffffffffffff1673ffffffffffffffffffffffffffffffffffffffff1681526020016000820160149054906101000a90046bffffffffffffffffffffffff166bffffffffffffffffffffffff166bffffffffffffffffffffffff168152505090505b60006113f4612d69565b6bffffffffffffffffffffffff1682602001516bffffffffffffffffffffffff16866114209190613fd8565b61142a9190613fa7565b90508160000151819350935050509250929050565b611447612a33565b73ffffffffffffffffffffffffffffffffffffffff166114656117af565b73ffffffffffffffffffffffffffffffffffffffff16146114bb576040517f08c379a00000000000000000000000000000000000000000000000000000000081526004016114b290613dab565b60405180910390fd5b80600b8190555050565b6114cd612a33565b73ffffffffffffffffffffffffffffffffffffffff166114eb6117af565b73ffffffffffffffffffffffffffffffffffffffff1614611541576040517f08c379a000000000000000000000000000000000000000000000000000000000815260040161153890613dab565b60405180910390fd5b611549612d73565b565b61156683838360405180602001604052806000815250611f6a565b505050565b6000600d60003373ffffffffffffffffffffffffffffffffffffffff1673ffffffffffffffffffffffffffffffffffffffff16815260200190815260200160002060009054906101000a900460ff16905090565b6000600a60009054906101000a900460ff16905090565b60006115e182612bd6565b9050919050565b60008073ffffffffffffffffffffffffffffffffffffffff168273ffffffffffffffffffffffffffffffffffffffff161415611650576040517f8f4eb60400000000000000000000000000000000000000000000000000000000815260040160405180910390fd5b67ffffffffffffffff600560008473ffffffffffffffffffffffffffffffffffffffff1673ffffffffffffffffffffffffffffffffffffffff16815260200190815260200160002054169050919050565b6116a9612a33565b73ffffffffffffffffffffffffffffffffffffffff166116c76117af565b73ffffffffffffffffffffffffffffffffffffffff161461171d576040517f08c379a000000000000000000000000000000000000000000000000000000000815260040161171490613dab565b60405180910390fd5b6117276000612e15565b565b611731612a33565b73ffffffffffffffffffffffffffffffffffffffff1661174f6117af565b73ffffffffffffffffffffffffffffffffffffffff16146117a5576040517f08c379a000000000000000000000000000000000000000000000000000000000815260040161179c90613dab565b60405180910390fd5b6117ad612edb565b565b6000600a60019054906101000a900473ffffffffffffffffffffffffffffffffffffffff16905090565b600f80546117e6906140e8565b80601f0160208091040260200160405190810160405280929190818152602001828054611812906140e8565b801561185f5780601f106118345761010080835404028352916020019161185f565b820191906000526020600020905b81548152906001019060200180831161184257829003601f168201915b505050505081565b61186f612a33565b73ffffffffffffffffffffffffffffffffffffffff1661188d6117af565b73ffffffffffffffffffffffffffffffffffffffff16146118e3576040517f08c379a00000000000000000000000000000000000000000000000000000000081526004016118da90613dab565b60405180910390fd5b8060138190555050565b6060600380546118fc906140e8565b80601f0160208091040260200160405190810160405280929190818152602001828054611928906140e8565b80156119755780601f1061194a57610100808354040283529160200191611975565b820191906000526020600020905b81548152906001019060200180831161195857829003601f168201915b5050505050905090565b600c6020528060005260406000206000915090505481565b6000601354905090565b600e80546119ae906140e8565b80601f01602080910402602001604051908101604052809291908181526020018280546119da906140e8565b8015611a275780601f106119fc57610100808354040283529160200191611a27565b820191906000526020600020905b815481529060010190602001808311611a0a57829003601f168201915b505050505081565b8060008111611a73576040517f08c379a0000000000000000000000000000000000000000000000000000000008152600401611a6a90613d0b565b60405180910390fd5b600b5481611a7f610dbf565b611a899190613f51565b1115611aca576040517f08c379a0000000000000000000000000000000000000000000000000000000008152600401611ac190613dcb565b60405180910390fd5b600281600c60003373ffffffffffffffffffffffffffffffffffffffff1673ffffffffffffffffffffffffffffffffffffffff16815260200190815260200160002054611b179190613f51565b1115611b58576040517f08c379a0000000000000000000000000000000000000000000000000000000008152600401611b4f90613d6b565b60405180910390fd5b601460019054906101000a900460ff16611ba7576040517f08c379a0000000000000000000000000000000000000000000000000000000008152600401611b9e90613d8b565b60405180910390fd5b611baf6115bf565b15611bef576040517f08c379a0000000000000000000000000000000000000000000000000000000008152600401611be690613d4b565b60405180910390fd5b611bf761156b565b611c0957611c0482612f7e565b611c14565b611c133383612fe0565b5b81600c60003373ffffffffffffffffffffffffffffffffffffffff1673ffffffffffffffffffffffffffffffffffffffff1681526020019081526020016000206000828254611c639190613f51565b925050819055505050565b611c76612a33565b73ffffffffffffffffffffffffffffffffffffffff16611c946117af565b73ffffffffffffffffffffffffffffffffffffffff1614611cea576040517f08c379a0000000000000000000000000000000000000000000000000000000008152600401611ce190613dab565b60405180910390fd5b80600e9080519060200190611d009291906133a0565b5050565b611d0c612a2b565b73ffffffffffffffffffffffffffffffffffffffff168273ffffffffffffffffffffffffffffffffffffffff161415611d71576040517fb06307db00000000000000000000000000000000000000000000000000000000815260040160405180910390fd5b8060076000611d7e612a2b565b73ffffffffffffffffffffffffffffffffffffffff1673ffffffffffffffffffffffffffffffffffffffff16815260200190815260200160002060008473ffffffffffffffffffffffffffffffffffffffff1673ffffffffffffffffffffffffffffffffffffffff16815260200190815260200160002060006101000a81548160ff0219169083151502179055508173ffffffffffffffffffffffffffffffffffffffff16611e2b612a2b565b73ffffffffffffffffffffffffffffffffffffffff167f17307eab39ab6107e8899845ad3d59bd9653f200f220920489ca2b5937696c3183604051611e709190613c2e565b60405180910390a35050565b611e84612a33565b73ffffffffffffffffffffffffffffffffffffffff16611ea26117af565b73ffffffffffffffffffffffffffffffffffffffff1614611ef8576040517f08c379a0000000000000000000000000000000000000000000000000000000008152600401611eef90613dab565b60405180910390fd5b601460009054906101000a900460ff1615611f48576040517f08c379a0000000000000000000000000000000000000000000000000000000008152600401611f3f90613c6b565b60405180910390fd5b6001601460006101000a81548160ff021916908315150217905550565b600281565b611f75848484610e64565b60008373ffffffffffffffffffffffffffffffffffffffff163b14611fd757611fa0848484846131b4565b611fd6576040517fd1a57ed600000000000000000000000000000000000000000000000000000000815260040160405180910390fd5b5b50505050565b611fe5612a33565b73ffffffffffffffffffffffffffffffffffffffff166120036117af565b73ffffffffffffffffffffffffffffffffffffffff1614612059576040517f08c379a000000000000000000000000000000000000000000000000000000000815260040161205090613dab565b60405180910390fd5b806010908051906020019061206f9291906133a0565b5050565b606061207e826129cc565b6120bd576040517f08c379a00000000000000000000000000000000000000000000000000000000081526004016120b490613d2b565b60405180910390fd5b6000806002846120cd9190614194565b146120d957600f6120dc565b60105b80546120e7906140e8565b80601f0160208091040260200160405190810160405280929190818152602001828054612113906140e8565b80156121605780601f1061213557610100808354040283529160200191612160565b820191906000526020600020905b81548152906001019060200180831161214357829003601f168201915b50505050509050601460009054906101000a900460ff1661220b57600e8054612188906140e8565b80601f01602080910402602001604051908101604052809291908181526020018280546121b4906140e8565b80156122015780601f106121d657610100808354040283529160200191612201565b820191906000526020600020905b8154815290600101906020018083116121e457829003601f168201915b505050505061220d565b805b915050919050565b600061221f613314565b905090565b61222c612a33565b73ffffffffffffffffffffffffffffffffffffffff1661224a6117af565b73ffffffffffffffffffffffffffffffffffffffff16146122a0576040517f08c379a000000000000000000000000000000000000000000000000000000000815260040161229790613dab565b60405180910390fd5b60005b8151811015612357576001600d60008484815181106122eb577f4e487b7100000000000000000000000000000000000000000000000000000000600052603260045260246000fd5b602002602001015173ffffffffffffffffffffffffffffffffffffffff1673ffffffffffffffffffffffffffffffffffffffff16815260200190815260200160002060006101000a81548160ff021916908315150217905550808061234f9061414b565b9150506122a3565b5050565b601460019054906101000a900460ff1681565b600b5481565b61237c612a33565b73ffffffffffffffffffffffffffffffffffffffff1661239a6117af565b73ffffffffffffffffffffffffffffffffffffffff16146123f0576040517f08c379a00000000000000000000000000000000000000000000000000000000081526004016123e790613dab565b60405180910390fd5b6123f86115bf565b612437576040517f08c379a000000000000000000000000000000000000000000000000000000000815260040161242e90613c8b565b60405180910390fd5b601460019054906101000a900460ff16612486576040517f08c379a000000000000000000000000000000000000000000000000000000000815260040161247d90613cab565b60405180910390fd5b6124903382612fe0565b80600c60003373ffffffffffffffffffffffffffffffffffffffff1673ffffffffffffffffffffffffffffffffffffffff16815260200190815260200160002060008282546124df9190613f51565b9250508190555050565b6124f1612a33565b73ffffffffffffffffffffffffffffffffffffffff1661250f6117af565b73ffffffffffffffffffffffffffffffffffffffff1614612565576040517f08c379a000000000000000000000000000000000000000000000000000000000815260040161255c90613dab565b60405180910390fd5b6000601460019054906101000a900460ff1690508061258b57612586612d73565b612594565b612593612edb565b5b8015601460016101000a81548160ff02191690831515021790555050565b6125ba612a33565b73ffffffffffffffffffffffffffffffffffffffff166125d86117af565b73ffffffffffffffffffffffffffffffffffffffff161461262e576040517f08c379a000000000000000000000000000000000000000000000000000000000815260040161262590613dab565b60405180910390fd5b8181600281600c60008573ffffffffffffffffffffffffffffffffffffffff1673ffffffffffffffffffffffffffffffffffffffff1681526020019081526020016000205461267d9190613f51565b1115801561268b5750600081115b6126ca576040517f08c379a00000000000000000000000000000000000000000000000000000000081526004016126c190613ceb565b60405180910390fd5b6126d48484612fe0565b82600c60008673ffffffffffffffffffffffffffffffffffffffff1673ffffffffffffffffffffffffffffffffffffffff16815260200190815260200160002060008282546127239190613f51565b9250508190555050505050565b6000600760008473ffffffffffffffffffffffffffffffffffffffff1673ffffffffffffffffffffffffffffffffffffffff16815260200190815260200160002060008373ffffffffffffffffffffffffffffffffffffffff1673ffffffffffffffffffffffffffffffffffffffff16815260200190815260200160002060009054906101000a900460ff16905092915050565b6127cc612a33565b73ffffffffffffffffffffffffffffffffffffffff166127ea6117af565b73ffffffffffffffffffffffffffffffffffffffff1614612840576040517f08c379a000000000000000000000000000000000000000000000000000000000815260040161283790613dab565b60405180910390fd5b80600f90805190602001906128569291906133a0565b5050565b612862612a33565b73ffffffffffffffffffffffffffffffffffffffff166128806117af565b73ffffffffffffffffffffffffffffffffffffffff16146128d6576040517f08c379a00000000000000000000000000000000000000000000000000000000081526004016128cd90613dab565b60405180910390fd5b600073ffffffffffffffffffffffffffffffffffffffff168173ffffffffffffffffffffffffffffffffffffffff161415612946576040517f08c379a000000000000000000000000000000000000000000000000000000000815260040161293d90613ccb565b60405180910390fd5b61294f81612e15565b50565b60007f2a55205a000000000000000000000000000000000000000000000000000000007bffffffffffffffffffffffffffffffffffffffffffffffffffffffff1916827bffffffffffffffffffffffffffffffffffffffffffffffffffffffff191614806129c557506129c48261331d565b5b9050919050565b6000816129d7612bd1565b111580156129e6575060005482105b8015612a24575060007c0100000000000000000000000000000000000000000000000000000000600460008581526020019081526020016000205416145b9050919050565b600033905090565b600033905090565b612a43612d69565b6bffffffffffffffffffffffff16816bffffffffffffffffffffffff161115612aa1576040517f08c379a0000000000000000000000000000000000000000000000000000000008152600401612a9890613e0b565b60405180910390fd5b600073ffffffffffffffffffffffffffffffffffffffff168273ffffffffffffffffffffffffffffffffffffffff161415612b11576040517f08c379a0000000000000000000000000000000000000000000000000000000008152600401612b0890613e2b565b60405180910390fd5b60405180604001604052808373ffffffffffffffffffffffffffffffffffffffff168152602001826bffffffffffffffffffffffff16815250600860008201518160000160006101000a81548173ffffffffffffffffffffffffffffffffffffffff021916908373ffffffffffffffffffffffffffffffffffffffff16021790555060208201518160000160146101000a8154816bffffffffffffffffffffffff02191690836bffffffffffffffffffffffff1602179055509050505050565b600090565b60008082905080612be5612bd1565b11612c6d57600054811015612c6c5760006004600083815260200190815260200160002054905060007c010000000000000000000000000000000000000000000000000000000082161415612c6a575b6000811415612c60576004600083600190039350838152602001908152602001600020549050612c35565b8092505050612c9f565b505b5b6040517fdf2d9b4200000000000000000000000000000000000000000000000000000000815260040160405180910390fd5b919050565b6000806000600690508360005280602052604060002092508254915050915091565b600073ffffffffffffffffffffffffffffffffffffffff8316925073ffffffffffffffffffffffffffffffffffffffff821691508382148383141790509392505050565b50505050565b60008060e883901c905060e8612d27868684613387565b62ffffff16901b9150509392505050565b600073ffffffffffffffffffffffffffffffffffffffff83169250814260a01b178317905092915050565b50505050565b6000612710905090565b612d7b6115bf565b612dba576040517f08c379a0000000000000000000000000000000000000000000000000000000008152600401612db190613c8b565b60405180910390fd5b6000600a60006101000a81548160ff0219169083151502179055507f5db9ee0a495bf2e6ff9c91a7834c1ba4fdd244a5e8aa4e537bd38aeae4b073aa612dfe612a33565b604051612e0b9190613b9e565b60405180910390a1565b6000600a60019054906101000a900473ffffffffffffffffffffffffffffffffffffffff16905081600a60016101000a81548173ffffffffffffffffffffffffffffffffffffffff021916908373ffffffffffffffffffffffffffffffffffffffff1602179055508173ffffffffffffffffffffffffffffffffffffffff168173ffffffffffffffffffffffffffffffffffffffff167f8be0079c531659141344cd1fd0a4f28419497f9722a3daafe3b4186f6b6457e060405160405180910390a35050565b612ee36115bf565b15612f23576040517f08c379a0000000000000000000000000000000000000000000000000000000008152600401612f1a90613d4b565b60405180910390fd5b6001600a60006101000a81548160ff0219169083151502179055507f62e78cea01bee320cd4e420270b5ea74000d11b0c9f74754ebdbfc544b05a258612f67612a33565b604051612f749190613b9e565b60405180910390a1565b80612f87611997565b612f919190613fd8565b341015612fd3576040517f08c379a0000000000000000000000000000000000000000000000000000000008152600401612fca90613deb565b60405180910390fd5b612fdd3382612fe0565b50565b600080549050600073ffffffffffffffffffffffffffffffffffffffff168373ffffffffffffffffffffffffffffffffffffffff16141561304d576040517f2e07630000000000000000000000000000000000000000000000000000000000815260040160405180910390fd5b6000821415613088576040517fb562e8dd00000000000000000000000000000000000000000000000000000000815260040160405180910390fd5b6130956000848385612d0a565b600160406001901b178202600560008573ffffffffffffffffffffffffffffffffffffffff1673ffffffffffffffffffffffffffffffffffffffff1681526020019081526020016000206000828254019250508190555061310c836130fd6000866000612d10565b61310685613390565b17612d38565b60046000838152602001908152602001600020819055506000819050600083830190505b818060010192508573ffffffffffffffffffffffffffffffffffffffff16600073ffffffffffffffffffffffffffffffffffffffff167fddf252ad1be2c89b69c2b068fc378daa952ba7f163c4a11628f55a4df523b3ef60405160405180910390a4808210613130578060008190555050506131af6000848385612d63565b505050565b60008373ffffffffffffffffffffffffffffffffffffffff1663150b7a026131da612a2b565b8786866040518563ffffffff1660e01b81526004016131fc9493929190613bb9565b602060405180830381600087803b15801561321657600080fd5b505af192505050801561324757506040513d601f19601f820116820180604052508101906132449190613823565b60015b6132c1573d8060008114613277576040519150601f19603f3d011682016040523d82523d6000602084013e61327c565b606091505b506000815114156132b9576040517fd1a57ed600000000000000000000000000000000000000000000000000000000815260040160405180910390fd5b805181602001fd5b63150b7a0260e01b7bffffffffffffffffffffffffffffffffffffffffffffffffffffffff1916817bffffffffffffffffffffffffffffffffffffffffffffffffffffffff191614915050949350505050565b60008054905090565b60007f01ffc9a7000000000000000000000000000000000000000000000000000000007bffffffffffffffffffffffffffffffffffffffffffffffffffffffff1916827bffffffffffffffffffffffffffffffffffffffffffffffffffffffff1916149050919050565b60009392505050565b60006001821460e11b9050919050565b8280546133ac906140e8565b90600052602060002090601f0160209004810192826133ce5760008555613415565b82601f106133e757805160ff1916838001178555613415565b82800160010185558215613415579182015b828111156134145782518255916020019190600101906133f9565b5b5090506134229190613426565b5090565b5b8082111561343f576000816000905550600101613427565b5090565b600061345661345184613e8b565b613e66565b9050808382526020820190508285602086028201111561347557600080fd5b60005b858110156134a5578161348b888261352b565b845260208401935060208301925050600181019050613478565b5050509392505050565b60006134c26134bd84613eb7565b613e66565b9050828152602081018484840111156134da57600080fd5b6134e58482856140a6565b509392505050565b60006135006134fb84613ee8565b613e66565b90508281526020810184848401111561351857600080fd5b6135238482856140a6565b509392505050565b60008135905061353a81614545565b92915050565b600082601f83011261355157600080fd5b8135613561848260208601613443565b91505092915050565b6000813590506135798161455c565b92915050565b60008135905061358e81614573565b92915050565b6000815190506135a381614573565b92915050565b600082601f8301126135ba57600080fd5b81356135ca8482602086016134af565b91505092915050565b600082601f8301126135e457600080fd5b81356135f48482602086016134ed565b91505092915050565b60008135905061360c8161458a565b92915050565b60006020828403121561362457600080fd5b60006136328482850161352b565b91505092915050565b6000806040838503121561364e57600080fd5b600061365c8582860161352b565b925050602061366d8582860161352b565b9150509250929050565b60008060006060848603121561368c57600080fd5b600061369a8682870161352b565b93505060206136ab8682870161352b565b92505060406136bc868287016135fd565b9150509250925092565b600080600080608085870312156136dc57600080fd5b60006136ea8782880161352b565b94505060206136fb8782880161352b565b935050604061370c878288016135fd565b925050606085013567ffffffffffffffff81111561372957600080fd5b613735878288016135a9565b91505092959194509250565b6000806040838503121561375457600080fd5b60006137628582860161352b565b92505060206137738582860161356a565b9150509250929050565b6000806040838503121561379057600080fd5b600061379e8582860161352b565b92505060206137af858286016135fd565b9150509250929050565b6000602082840312156137cb57600080fd5b600082013567ffffffffffffffff8111156137e557600080fd5b6137f184828501613540565b91505092915050565b60006020828403121561380c57600080fd5b600061381a8482850161357f565b91505092915050565b60006020828403121561383557600080fd5b600061384384828501613594565b91505092915050565b60006020828403121561385e57600080fd5b600082013567ffffffffffffffff81111561387857600080fd5b613884848285016135d3565b91505092915050565b60006020828403121561389f57600080fd5b60006138ad848285016135fd565b91505092915050565b600080604083850312156138c957600080fd5b60006138d7858286016135fd565b92505060206138e8858286016135fd565b9150509250929050565b6138fb81614032565b82525050565b61390a81614044565b82525050565b600061391b82613f19565b6139258185613f2f565b93506139358185602086016140b5565b61393e81614281565b840191505092915050565b600061395482613f24565b61395e8185613f40565b935061396e8185602086016140b5565b61397781614281565b840191505092915050565b600061398f601983613f40565b915061399a82614292565b602082019050919050565b60006139b2601483613f40565b91506139bd826142bb565b602082019050919050565b60006139d5601983613f40565b91506139e0826142e4565b602082019050919050565b60006139f8602683613f40565b9150613a038261430d565b604082019050919050565b6000613a1b601683613f40565b9150613a268261435c565b602082019050919050565b6000613a3e600e83613f40565b9150613a4982614385565b602082019050919050565b6000613a61601483613f40565b9150613a6c826143ae565b602082019050919050565b6000613a84601083613f40565b9150613a8f826143d7565b602082019050919050565b6000613aa7600e83613f40565b9150613ab282614400565b602082019050919050565b6000613aca601283613f40565b9150613ad582614429565b602082019050919050565b6000613aed602083613f40565b9150613af882614452565b602082019050919050565b6000613b10600d83613f40565b9150613b1b8261447b565b602082019050919050565b6000613b33601283613f40565b9150613b3e826144a4565b602082019050919050565b6000613b56602a83613f40565b9150613b61826144cd565b604082019050919050565b6000613b79601983613f40565b9150613b848261451c565b602082019050919050565b613b988161409c565b82525050565b6000602082019050613bb360008301846138f2565b92915050565b6000608082019050613bce60008301876138f2565b613bdb60208301866138f2565b613be86040830185613b8f565b8181036060830152613bfa8184613910565b905095945050505050565b6000604082019050613c1a60008301856138f2565b613c276020830184613b8f565b9392505050565b6000602082019050613c436000830184613901565b92915050565b60006020820190508181036000830152613c638184613949565b905092915050565b60006020820190508181036000830152613c8481613982565b9050919050565b60006020820190508181036000830152613ca4816139a5565b9050919050565b60006020820190508181036000830152613cc4816139c8565b9050919050565b60006020820190508181036000830152613ce4816139eb565b9050919050565b60006020820190508181036000830152613d0481613a0e565b9050919050565b60006020820190508181036000830152613d2481613a31565b9050919050565b60006020820190508181036000830152613d4481613a54565b9050919050565b60006020820190508181036000830152613d6481613a77565b9050919050565b60006020820190508181036000830152613d8481613a9a565b9050919050565b60006020820190508181036000830152613da481613abd565b9050919050565b60006020820190508181036000830152613dc481613ae0565b9050919050565b60006020820190508181036000830152613de481613b03565b9050919050565b60006020820190508181036000830152613e0481613b26565b9050919050565b60006020820190508181036000830152613e2481613b49565b9050919050565b60006020820190508181036000830152613e4481613b6c565b9050919050565b6000602082019050613e606000830184613b8f565b92915050565b6000613e70613e81565b9050613e7c828261411a565b919050565b6000604051905090565b600067ffffffffffffffff821115613ea657613ea5614252565b5b602082029050602081019050919050565b600067ffffffffffffffff821115613ed257613ed1614252565b5b613edb82614281565b9050602081019050919050565b600067ffffffffffffffff821115613f0357613f02614252565b5b613f0c82614281565b9050602081019050919050565b600081519050919050565b600081519050919050565b600082825260208201905092915050565b600082825260208201905092915050565b6000613f5c8261409c565b9150613f678361409c565b9250827fffffffffffffffffffffffffffffffffffffffffffffffffffffffffffffffff03821115613f9c57613f9b6141c5565b5b828201905092915050565b6000613fb28261409c565b9150613fbd8361409c565b925082613fcd57613fcc6141f4565b5b828204905092915050565b6000613fe38261409c565b9150613fee8361409c565b9250817fffffffffffffffffffffffffffffffffffffffffffffffffffffffffffffffff0483118215151615614027576140266141c5565b5b828202905092915050565b600061403d8261407c565b9050919050565b60008115159050919050565b60007fffffffff0000000000000000000000000000000000000000000000000000000082169050919050565b600073ffffffffffffffffffffffffffffffffffffffff82169050919050565b6000819050919050565b82818337600083830152505050565b60005b838110156140d35780820151818401526020810190506140b8565b838111156140e2576000848401525b50505050565b6000600282049050600182168061410057607f821691505b6020821081141561411457614113614223565b5b50919050565b61412382614281565b810181811067ffffffffffffffff8211171561414257614141614252565b5b80604052505050565b60006141568261409c565b91507fffffffffffffffffffffffffffffffffffffffffffffffffffffffffffffffff821415614189576141886141c5565b5b600182019050919050565b600061419f8261409c565b91506141aa8361409c565b9250826141ba576141b96141f4565b5b828206905092915050565b7f4e487b7100000000000000000000000000000000000000000000000000000000600052601160045260246000fd5b7f4e487b7100000000000000000000000000000000000000000000000000000000600052601260045260246000fd5b7f4e487b7100000000000000000000000000000000000000000000000000000000600052602260045260246000fd5b7f4e487b7100000000000000000000000000000000000000000000000000000000600052604160045260246000fd5b6000601f19601f8301169050919050565b7f596f75206861766520616c72656164792072657665616c656400000000000000600082015250565b7f5061757361626c653a206e6f7420706175736564000000000000000000000000600082015250565b7f53686f756c64206368616e6765204d696e742073746174757300000000000000600082015250565b7f4f776e61626c653a206e6577206f776e657220697320746865207a65726f206160008201527f6464726573730000000000000000000000000000000000000000000000000000602082015250565b7f43616e27742061697264726f7020666f72207573657200000000000000000000600082015250565b7f496e76616c696420616d6f756e74000000000000000000000000000000000000600082015250565b7f546f6b656e20446f6573204e6f74204578697374000000000000000000000000600082015250565b7f5061757361626c653a2070617573656400000000000000000000000000000000600082015250565b7f416c7265616479204d696e746564000000000000000000000000000000000000600082015250565b7f596f752063616e2774206d696e74206e6f770000000000000000000000000000600082015250565b7f4f776e61626c653a2063616c6c6572206973206e6f7420746865206f776e6572600082015250565b7f45786365656420616d6f756e7400000000000000000000000000000000000000600082015250565b7f696e73756666696369656e742066756e64730000000000000000000000000000600082015250565b7f455243323938313a20726f79616c7479206665652077696c6c2065786365656460008201527f2073616c65507269636500000000000000000000000000000000000000000000602082015250565b7f455243323938313a20696e76616c696420726563656976657200000000000000600082015250565b61454e81614032565b811461455957600080fd5b50565b61456581614044565b811461457057600080fd5b50565b61457c81614050565b811461458757600080fd5b50565b6145938161409c565b811461459e57600080fd5b5056fea26469706673582212206b5ad86e75fc862cda828a51128b235389508b928a0d5cfbf7aecce331c094a564736f6c6343000804003368747470733a2f2f697066732e696f2f697066732f516d50646469587a56693858736b69316858344b58426b347a79456d77636f766f6467706f3275384d427162676a2f68747470733a2f2f697066732e696f2f697066732f516d6643545a354d6b464c673236345a7556665958363632546141506b6374756a735a613470616f5543726246342f68747470733a2f2f697066732e696f2f697066732f516d6357336257344c653873576b4567484c7858766351784675326e6638356e54344d516f6e5a56726f757069742f",
  "linkReferences": {},
  "deployedLinkReferences": {}
}